:020000040800F2
:10000000180500204905000851050008530500089F
:1000100055050008570500085905000800000000B4
:100020000000000000000000000000005B05000868
:100030005D050008000000005F050008850200085B
:1000400063050008630500086305000863050008F0
:1000500063050008630500086305000863050008E0
:1000600063050008630500086305000863050008D0
:1000700063050008630500086305000863050008C0
:1000800063050008630500086305000863050008B0
:1000900063050008630500086305000863050008A0
:1000A0006305000863050008630500086305000890
:1000B00063050008630500080000000063050008F0
:1000C0006305000800000000000000006305000850
:1000D0000000000063050008630500080000000040
:1000E00063050008630500086305000800F002F8D6
:1000F00000F03AF80AA090E8000C82448344AAF188
:100100000107DA4501D100F02FF8AFF2090EBAE885
:100110000F0013F0010F18BFFB1A43F0010318473B
:10012000B8390000D8390000103A24BF78C878C127
:10013000FAD8520724BF30C830C144BF04680C60ED
:10014000704700000023002400250026103A28BF35
:1001500078C1FBD8520728BF30C148BF0B60704739
:100160001FB51FBD10B510BD02F0BAF81146FFF75C
:10017000F7FF00F08DF802F0D8F803B4FFF7F2FFB4
:1001800003BC02F0DBF8000001468A4800688842A0
:1001900001D2002070470020864A10600120F9E754
:1001A0004FF08040808C704770B50446002582482F
:1001B0000068201AB0F5167F05DC7F480068201A19
:1001C00010F5167F1FDA7C480068201A10F5167F9C
:1001D0000CDA79490968C1F58061081903F0E2F980
:1001E0000646764903F03EFA054616E0724909686C
:1001F000734A511A081903F0D5F906466F4903F0FE
:1002000031FA054609E06C490968601A03F0CAF939
:1002100006466A4903F026FA0546674804604FF02F
:100220008941284603F0ACF80546284603F09EF9BC
:1002300070BD30B5634800684FF47A72B0FBF2F1DC
:10024000481EB0F1807F00D31BE0481E4FF0E02233
:10025000506150170F22002804DB13071C0E5A4B65
:100260001C5406E013071D0E584B00F00F04241F0A
:100270001D5500BF00204FF0E02290610720106163
:1002800000BF30BD4B480068401C4A4908607047B9
:1002900001F078FB01F02BFC01F06EFCFFF7C9FFC9
:1002A00085E00120FFF770FF0028F9D0FFF778FF05
:1002B0004749086008460068FFF776FF454908602F
:1002C000454800680968401A4449086008460068C3
:1002D00001F068FC42490860002001F020FE41491D
:1002E0000860012001F01BFE3F4908603D4800689E
:1002F00040420968401A3D4908603548008883B289
:1003000008460268384801683648006801F0E5FE92
:1003100001F0ACFF3649086001F0ABFF35490860D9
:100320002F4800680968401A33490860304800685F
:100330004042324908600846006801F079FC3049C3
:1003400008602D48006801F0A0FC2E490860204894
:10035000008882B2084601682948006801F014FF4D
:1003600001F08AFF2849086001F089FF27490860E9
:1003700001F088FF2649086023480468234805687F
:1003800008460668002C02DA2D1B361B0024002DBF
:1003900002DA641B761B0025002E02DAA41BAD1BBB
:1003A000002632462946204601F042FB00BF78E78E
:1003B00000BFFEE7440000204800002000007A440F
:1003C00000FCFFFF4C00002000E400E018ED00E01E
:1003D00040000020000000202C0000203000002001
:1003E0003C00002004000020080000200C00002039
:1003F000180000201C000020140000201000002025
:1004000034000020380000202000002024000020BC
:10041000280000200CB5002001900090464800689C
:1004200040F480304449086000BF4348006800F44D
:10043000003000900198401C0190009818B9019874
:10044000B0F5A06FF1D13C48006800F4003010B165
:100450000120009001E0002000900098012843D185
:100460003648006840F010003449086008460068CB
:1004700020F0030008600846006840F002000860B1
:100480002D4840682C494860084640684860084646
:10049000406840F4806048600846406820F47C1062
:1004A00048600846406840F4E81048600846006824
:1004B00040F08070086000BF1F48006800F00070C6
:1004C0000028F9D01C48406820F003001A49486011
:1004D0000846406840F00200486000BF1648406887
:1004E00000F00C000828F9D10CBD10B5FFF792FF01
:1004F00010BD10B51048006840F001000E490860BA
:10050000084640680E4908400B49486008460068A4
:100510000C490840084908600846006820F480201B
:1005200008600846406820F4FE0048604FF41F0051
:100530008860FFF7DAFF10BD001002400020024083
:100540000000FFF8FFFFF6FE094880470948004712
:10055000FEE7FEE7FEE7FEE7FEE7FEE7FEE7FEE773
:10056000FEE7FEE704480549034A054B70470000D3
:10057000F3040008ED000008180100201805002011
:10058000180100202DE9F04105460C460026002701
:10059000FA48854205D0FA48854202D0F94885429A
:1005A00000D103E0DF21F8A0FFF702FF206818B3B5
:1005B0002068B0F5803F1FD02068B0F5003F1BD009
:1005C0002068B0F5403F17D02068B0F5802F13D0D9
:1005D0002068B0F5A02F0FD02068B0F5C02F0BD049
:1005E0002068B0F5E02F07D02068B0F5002F03D0C9
:1005F0002068B0F5102F00D103E0E021E2A0FFF762
:10060000D7FE207910B12079012800D103E0E12143
:10061000DDA0FFF7CDFE607910B16079012800D12F
:1006200003E0E221D8A0FFF7C3FEA06888B3A0686A
:10063000B0F5003F2DD0A068B0F5802F29D0A0687C
:10064000B0F5C02F25D0A068B0F5002F21D0A0684C
:10065000B0F5202F1DD0A068B0F5402F19D0A068AC
:10066000B0F5602F15D0A06898B1A068B0F5003F34
:100670000FD0A068B0F5C02F0BD0A068B0F5002F48
:1006800007D0A068B0F5202F03D0A068B0F5402FA8
:1006900000D103E0E321BCA0FFF78AFEE06818B1B7
:1006A000E068B0F5006F00D103E0E421B6A0FFF7E9
:1006B0007FFE207C012803DB207C102800DC03E087
:1006C000E521B1A0FFF774FE6E68B64806402179B7
:1006D000206840EA012006436E60AE68B2480640DA
:1006E000D4E902100843617940EA41000643AE6054
:1006F000EE6A26F47006207C401EC0B2074346EA2C
:100700000756EE62BDE8F08170B504460D469B4881
:10071000844205D09A48844202D09A48844200D14B
:1007200004E04FF4977198A0FFF742FE0DB1012D40
:1007300000D104E040F22F1193A0FFF739FE25B15C
:10074000A06840F00100A06003E0A06820F0010074
:10075000A06070BD70B504460D468848844202D042
:100760008848844200D104E040F2471186A0FFF798
:100770001FFE0DB1012D00D104E04FF4A47182A041
:10078000FFF716FE25B1A06840F48070A06003E07A
:10079000A06820F48070A06070BD70B504460D465E
:1007A0007648844205D07648844202D07548844217
:1007B00000D104E04FF4E67173A0FFF7F9FD0DB12D
:1007C000012D00D104E040F2CD116FA0FFF7F0FD44
:1007D00025B1A06840F4A000A06003E0A06820F468
:1007E000A000A06070BD2DE9F04706460C461746F4
:1007F00098460025A9466148864205D06048864251
:1008000002D06048864200D104E040F252215EA04E
:10081000FFF7CEFD0CB3012C1FD0022C1DD0032CF2
:100820001BD0042C19D0052C17D0062C15D0072C62
:1008300013D0082C11D0092C0FD00A2C0DD00B2C62
:100840000BD00C2C09D00D2C07D00E2C05D00F2C62
:1008500003D0102C01D0112C00D104E040F2532120
:1008600049A0FFF7A5FD012F02DB102F00DC04E0FB
:100870004FF4157144A0FFF79BFDB8F1000F14D0A1
:10088000B8F1010F11D0B8F1020F0ED0B8F1030F7B
:100890000BD0B8F1040F08D0B8F1050F05D0B8F1AE
:1008A000060F02D0B8F1070F00D104E040F2552145
:1008B00035A0FFF77DFD092C13DDF568A4F10A00D2
:1008C00000EB4001072000FA01F925EA0905A4F12F
:1008D0000A0000EB400008FA00F945EA0905F56056
:1008E0000EE0356904EB4401072000FA01F925EA1E
:1008F000090504EB440008FA00F945EA09053561E9
:10090000072F11DA756B781E00EB80011F2000FAAB
:1009100001F925EA0905781E00EB800004FA00F9C8
:1009200045EA0905756326E00D2F11DA356BF81FCE
:1009300000EB80011F2000FA01F925EA0905F81FE4
:1009400000EB800004FA00F945EA0905356312E07E
:10095000F56AA7F10D0000EB80011F2000FA01F9F4
:1009600025EA0905A7F10D0000EB800004FA00F963
:1009700045EA0905F562BDE8F08700000024014062
:1009800000280140003C01407372635C73706C5C32
:100990007372635C73746D3332663130785F616497
:1009A000632E6300FFFEF0FFFDF7F1FF70B5054613
:1009B0000C460026844885422AD08348143085425C
:1009C00026D081482830854222D07F483C3085425D
:1009D0001ED07D48503085421AD07B486430854215
:1009E00016D079487830854212D0784885420FD0A9
:1009F0007648143085420BD074482830854207D0A1
:100A000072483C30854203D070485030854200D156
:100A100003E0CF216EA0FFF7CBFCA068102801D027
:100A2000A06800B903E0D02169A0FFF7C1FCE0682D
:100A300020B1E068B0F5803F00D203E0D12164A08E
:100A4000FFF7B6FC2069402801D0206900B903E017
:100A5000D2215FA0FFF7ACFC6069802801D06069FB
:100A600000B903E0D3215AA0FFF7A2FCA06938B176
:100A7000A069B0F5807F03D0A069B0F5007F00D1F8
:100A800003E0D42152A0FFF793FCE06938B1E0699C
:100A9000B0F5806F03D0E069B0F5006F00D103E0DE
:100AA000D5214BA0FFF784FC206A202801D0206AC2
:100AB00000B903E0D62146A0FFF77AFC606AB0F5E2
:100AC000405F09D0606AB0F5005F05D0606AB0F59C
:100AD000805F01D0606A00B903E0D7213CA0FFF736
:100AE00067FCA06AB0F5804F01D0A06A00B903E0AE
:100AF000D82137A0FFF75CFC2E6847F6F0708643DC
:100B0000216AA06808432169084361690843A16913
:100B10000843E1690843616A0843A16A0843064340
:100B20002E60E06868602068A8606068E86070BD5A
:100B300070B504460D46244884422AD02248143019
:100B4000844226D020482830844222D01E483C309F
:100B500084421ED01C48503084421AD01A48643057
:100B6000844216D018487830844212D01748844204
:100B70000FD01648143084420BD0144828308442D9
:100B800007D012483C30844203D010485030844291
:100B900000D104E040F229110DA0FFF709FC0DB1CE
:100BA000012D00D104E04FF4957109A0FFF700FC7E
:100BB00025B1206840F00100206004E020684FF675
:100BC000FE710840206070BD080002400804024029
:100BD0007372635C73706C5C7372635C73746D339B
:100BE00032663130785F646D612E63002DE9F05F0D
:100BF00005460C464FF00009CA4600260027B046BD
:100C0000B3465D48854211D05C4885420ED05C48B1
:100C100085420BD05B48854208D05B48854205D0B1
:100C20005A48854202D05A48854200D103E0B22199
:100C300058A0FFF7BDFBE078A0B1E078042811D000
:100C4000E07828280ED0E07848280BD0E0781428E7
:100C500008D0E078102805D0E0781C2802D0E07891
:100C6000182800D103E0B3214AA0FFF7A1FB002020
:100C700010B9208800B103E0B42146A0FFF798FB2B
:100C8000E07800F00F09E07800F0100080B1A07863
:100C9000012805D0A078022802D0A078032800D12E
:100CA00003E0BB213BA0FFF783FBA07840EA0909E2
:100CB000207838B3D5F8008000261FE0012000FA24
:100CC00006F7208800EA070ABA4516D1B7000F20B8
:100CD00000FA07FB28EA0B0809FA07F040EA0808BF
:100CE000E078282803D10120B040686105E0E07871
:100CF000482802D10120B0402861761C082EDDD39F
:100D0000C5F800802088FF282BDDD5F80480002658
:100D100023E006F10800012101FA00F7208800EA2B
:100D2000070ABA4518D1B7000F2000FA07FB28EAD6
:100D30000B0809FA07F040EA0808E078282803D1F0
:100D400006F1080081406961E078482804D106F185
:100D50000800012181402961761C082ED9D3C5F8ED
:100D60000480BDE8F09F4FF6FF7101800221817081
:100D70000421C1707047000000080140000C0140D0
:100D8000001001400014014000180140001C014007
:100D9000002001407372635C73706C5C7372635CFF
:100DA00073746D3332663130785F6770696F2E63AC
:100DB0000000000070B504460D4640F2575024EA8A
:100DC000000008B904B104E040F22B411DA0FFF778
:100DD000EFFA0DB1012D00D104E040F22C4119A031
:100DE000FFF7E6FA2DB11E48406920431C494861CF
:100DF00004E01B484069A0431949486170BD70B5C3
:100E000004460D461748204008B904B104E040F2FA
:100E10004A410CA0FFF7CCFA0DB1012D00D104E03E
:100E200040F24B4107A0FFF7C3FA2DB10C4880698F
:100E300020430B49886104E009488069A0430849C0
:100E4000886170BD7372635C73706C5C7372635C99
:100E500073746D3332663130785F7263632E630072
:100E6000001002400200C0FF70B504460D46002687
:100E7000FA4884422FD0B4F1804F2CD0F8488442F5
:100E800029D0F848844226D0F748844223D0F74836
:100E9000844220D0F64884421DD0F64884421AD0BD
:100EA000F548844217D0F548844214D0F44884426F
:100EB00011D0F44884420ED0F34884420BD0F3485A
:100EC000844208D0F248844205D0F248844202D0DD
:100ED000F148844200D103E0E721F0A0FFF768FA6F
:100EE000688858B16888102808D06888202805D0FC
:100EF0006888402802D06888602800D103E0E82193
:100F0000E6A0FFF755FAE88838B1E888B0F5807FA9
:100F100003D0E888B0F5007F00D103E0E921DFA02D
:100F2000FFF746FA2688CD4884420ED0D148844245
:100F30000BD0B4F1804F08D0C948844205D0C948CD
:100F4000844202D0C848844204D14FF68F700640D4
:100F500068880643C548844207D0C548844204D007
:100F60004FF6FF400640E88806432680A888A08503
:100F700028882085B94884420BD0BE48844208D0D6
:100F8000C348844205D0C348844202D0C248844248
:100F900001D1287A20860120A08270BD2DE9F04180
:100FA00004460D464FF0000800260027AB48844257
:100FB00029D0B4F1804F26D0A948844223D0A94833
:100FC000844220D0A84884421DD0AA4884421AD026
:100FD000A948844217D0A948844214D0A848844222
:100FE00011D0A84884420ED0A74884420BD0A7480D
:100FF000844208D0A648844205D0A648844202D044
:10100000A548844200D104E04FF48E71A3A0FFF7FD
:10101000CFF9288870B1288810280BD0288820287C
:1010200008D02888302805D02888602802D0288851
:10103000702800D104E040F21D1198A0FFF7B8F924
:10104000688810B16888012800D104E04FF48F71DE
:1010500092A0FFF7ADF9288910B12889022800D1A4
:1010600004E040F21F118DA0FFF7A2F9208C4FF68B
:10107000FE7108402084268CA788B4F818804FF6AB
:101080008F7008EA0008881E08EA0008288840EAED
:101090000808481E064028890643688806436F48AA
:1010A00084420BD07348844208D07948844205D0EA
:1010B0007848844202D07848844241D1A88810B14F
:1010C000A888042800D104E04FF49E7173A0FFF7B4
:1010D0006FF9688910B16889082800D104E040F2EE
:1010E0003D116EA0FFF764F9E889B0F5007F01D0EB
:1010F000E88900B904E04FF49F7168A0FFF758F940
:10110000A889B0F5807F01D0A88900B904E040F239
:101110003F1162A0FFF74CF94FF6F770064068895F
:1011200006434FF6FB700640A88806434FF6FF6063
:1011300007404FF6FF500740A8890743E889074357
:10114000A780A4F81880E888A0862684BDE8F081EE
:101150002DE9F04105460C464FF000080026002717
:101160003E48854217D0B5F1804F14D03C488542A7
:1011700011D03C4885420ED03B4885420BD03D48BB
:10118000854208D03C48854205D03E48854202D081
:101190003F48854200D104E040F26F113FA0FFF7C5
:1011A00007F9208870B1208810280BD020882028CB
:1011B00008D02088302805D02088602802D02088D8
:1011C000702800D104E04FF4B87134A0FFF7F0F8B4
:1011D000608810B16088012800D104E040F27111EC
:1011E0002EA0FFF7E5F8208910B12089022800D150
:1011F00004E04FF4B97129A0FFF7DAF8288C4FF614
:10120000EF71084028842E8CAF88B5F8188048F616
:10121000FF7008EA00084FF6FF4008EA000820883F
:101220004FF6FF7101EA002040EA08084FF6DF7030
:101230000640208901EA00100643608801EA001098
:1012400006430648854202D00A4885427ED1A088DE
:1012500010B1A08804282FD134E00000002C0140F8
:101260000004004000080040000C00400010004056
:101270000014004000340140004C01400050014087
:101280000054014000180040001C004000200040B5
:101290000040014000440140004801407372635C1B
:1012A00073706C5C7372635C73746D33326631306F
:1012B000785F74696D2E630040F28F11AFF22400E5
:1012C000FFF776F8608910B16089082800D105E041
:1012D0004FF4C871AFF23C00FFF76AF8E089B0F54F
:1012E000007F01D0E08900B905E040F29111AFF232
:1012F0005400FFF75DF8A089B0F5807F01D0A08988
:1013000000B905E04FF4C971AFF27000FFF750F873
:101310004FF67F70064060894FF6FF7101EA0010BA
:1013200006434FF6BF700640A08801EA001006434E
:101330004FF6FF3007404FF2FF700740A08901EAE7
:1013400080000743E08901EA800000E000E00743F5
:10135000AF80A5F81880E08828872E84BDE8F0814A
:101360002DE9F04105460C464FF000080026002705
:10137000FE4885420ED0B5F1804F0BD0FC48854227
:1013800008D0FC48854205D0FB48854202D0FB4886
:10139000854200D105E040F2C111AFF20010FFF725
:1013A00007F8208870B1208810280BD020882028CA
:1013B00008D02088302805D02088602802D02088D6
:1013C000702800D105E04FF4E171AFF23010FEF764
:1013D000EFFF608810B16088012800D105E040F27D
:1013E000C311AFF24810FEF7E3FF208910B1208946
:1013F000022800D105E04FF4E271AFF26010FEF771
:10140000D7FF288C4FF6FF61084028842E8CAF88C8
:10141000B5F81C804FF68F7008EA00084FF6FC7094
:1014200008EA0008208840EA08084FF6FF50064006
:1014300020894FF6FF7101EA00200643608801EA27
:1014400000200643C948854202D0CC4885424FD18E
:10145000A08810B1A088042800D105E04FF4F071F5
:10146000AFF2C810FEF7A4FF608910B160890828A8
:1014700000D105E040F2E111AFF2E010FEF798FF75
:10148000E089B0F5007F01D0E08900B905E04FF4B4
:10149000F171AFF2F810FEF78BFFA089B0F5807FF5
:1014A00001D0A08900B905E040F2E311AFF21420A9
:1014B000FEF77EFF4FF2FF70064060894FF6FF7126
:1014C00001EA002006434FF6FF300640A08801EAFB
:1014D000002006434EF6FF7007404DF6FF700740B0
:1014E000A08901EA00100743E08901EA00100743E0
:1014F000AF80A5F81C80E088A8872E84BDE8F08125
:10150000F0B50C461546002200210026078C4EF649
:10151000FF7C07EA0C070784828B018C4FF6FF776C
:1015200007EA043640F6FF473A404FF6FF7707EAEE
:1015300005273A434FF6FF7707EA03373A438B4FC5
:10154000B8420ED08D4FB8420BD0B0F1804F08D0CA
:10155000874FB84205D0874FB84202D0864FB84275
:1015600006D14DF6FF77394046F48057394305E000
:1015700047F6FF57394044F480573943828301844A
:10158000F0BDF0B50C461546002200210026078C60
:101590004FF6FF6C07EA0C070784828B018C4FF62D
:1015A000FF7707EA04264FF60C773A404FF6FF77AD
:1015B00007EA03172F433A436C4FB8420ED06F4FE0
:1015C000B8420BD0B0F1804F08D0694FB84205D077
:1015D000684FB84202D0684FB84206D14FF6FF5765
:1015E000394046F48077394305E04FF2FF573940E0
:1015F00044F48077394382830184F0BDF0B50C4612
:101600001546002200210026078C4FF6EF7C07EAE2
:101610000C070784028B018C4FF6FF7707EA04164C
:1016200040F6FF473A404FF6FF7707EA03373A4361
:101630004FF6FF7707EA05273A434C4FB8420ED0E2
:101640004E4FB8420BD0B0F1804F08D0484FB8424F
:1016500005D0484FB84202D0474FB84206D14FF6A6
:10166000DF77394046F01007394305E04FF65F77E2
:10167000394044F01007394302830184F0BDF0B5CE
:101680000C46154600220021068C4FF6FE773E40A0
:101690000684028B018C4FF60C7632407E1C06EAE3
:1016A00003162E433243314EB0420ED0334EB04279
:1016B0000BD0B0F1804F08D02D4EB04205D02D4E4A
:1016C000B04202D02C4EB04206D14FF6FD763140EA
:1016D00044F00106314305E04FF6F576314044F021
:1016E0000106314302830184F0BD4FF6FF71818012
:1016F00000210180C180418001727047002101807A
:1017000041808180C180018141818181C181704797
:1017100070B504460D46154884424AD0B4F1804F56
:1017200047D01348844244D01248844241D01248E2
:1017300084423ED0124884423BD01248844238D082
:101740000E48844235D01048844232D00F4884423B
:101750002FD00F4884422CD00E48844229D00E4806
:10176000844226D00D48844223D019E0002C014049
:101770000004004000080040000C0040003401401C
:101780000010004000140040004C01400050014097
:101790000054014000180040001C004000200040A0
:1017A0006A48844205D06A48844202D0694884422B
:1017B00000D105E040F22931AFF22050FEF7F8FDEC
:1017C0000DB1012D00D105E040F22A31AFF23450C5
:1017D000FEF7EEFD25B1208840F00100208004E0F6
:1017E00020884FF6FE710840208070BD70B5044619
:1017F0000D46594884420BD05848844208D053487B
:10180000844205D05248844202D05248844200D1DA
:1018100005E040F24231AFF27C50FEF7C9FD0DB158
:10182000012D00D105E040F24331AFF29050FEF7B8
:10183000BFFD35B1B4F8440040F40040A4F84400C2
:1018400005E0B4F84400C0F30E00A4F8440070BDF5
:1018500070B504460D464048844229D0B4F1804F0B
:1018600026D03F48844223D03E48844220D03E4880
:1018700084421DD0394884421AD03C48844217D053
:101880003B48844214D03B48844211D03A488442B9
:101890000ED03A4884420BD03948844208D02B48B5
:1018A000844205D02A48844202D02A48844200D18A
:1018B00005E040F6F701AFF21C60FEF779FDA58662
:1018C00070BD70B504460D462348844217D0B4F16C
:1018D000804F14D02248844211D0224884420ED036
:1018E000214884420BD01D48844208D01F488442BE
:1018F00005D02148844202D01448844200D105E03A
:1019000040F60511AFF26C60FEF752FD258770BD01
:1019100070B504460D46104884420ED0B4F1804F95
:101920000BD00F48844208D00E48844205D00E48A0
:10193000844202D00948844200D105E040F61311E8
:10194000AFF2A860FEF734FDA58770BD00400140EE
:101950000044014000480140002C01400034014097
:101960000004004000080040000C0040004C014012
:10197000005001400054014000180040001C00408D
:101980000020004000B589B001210420FFF737FA9C
:101990000121C802FFF733FA08A8FFF7E4F918207D
:1019A0008DF823004FF4E060ADF8200002208DF8A0
:1019B000220008A93648FFF719F905A8FFF795FE98
:1019C000344800683449B0FBF1F0401E80B2ADF8F5
:1019D000140040F2E730ADF818000020ADF81A000E
:1019E000ADF8160005A92D48FFF73EFA01A8FFF74C
:1019F00085FE6020ADF804000120ADF8060000204F
:101A0000ADF80A0001A92548FFF7C8FA01A9234843
:101A1000FFF79EFB01A92148FFF7A2FC01211F4807
:101A2000FFF7E4FE01211D48FFF772FE09B000BD7B
:101A30002DE9F04704460D4616462746A846B1460E
:101A4000B7F57A7F01DC384601E04FF47A7007463B
:101A5000B9B21248FFF7FCFEB8F57A7F01DC4046C8
:101A600001E04FF47A7080461FFA88F10B48FFF7C7
:101A700028FFB9F57A7F01DC484601E04FF47A701F
:101A800081461FFA89F10548FFF742FFBDE8F0875C
:101A9000000801404C00002040420F00002C014093
:101AA00000B58BB001210846FFF784F902200390AE
:101AB000002002900A90364801904FF48060079011
:101AC00080200590202008903248009080150690D4
:101AD000002004904FF40050099069462E48FEF70C
:101AE00065FF01212C48FFF723F80BB000BD00B5BE
:101AF00087B0FFF7D5FF01214FF40170274A126824
:101B000090470320ADF8180000208DF81B0002203C
:101B10008DF81A0006A92248FFF768F80020019006
:101B200001208DF808008DF809004FF46020039023
:101B30000020049002208DF8140001A915484C38AB
:101B4000FEF720FD00230122194612484C38FEF70B
:101B50004AFE0023022201210E484C38FEF743FEC4
:101B600001210C484C38FEF7F5FD012109484C389D
:101B7000FEF7CAFD07B000BD10B5012105484C387D
:101B8000FEF70BFE10BD0146014830F8110070470A
:101B9000600000204C24014008000240A43A0008E4
:101BA000000801402DE9F0470446204601F0FAFC08
:101BB00081464C480168484601F054FD07464A48B2
:101BC000006801F0EFFC8046394601F065FB0646EF
:101BD00001F0CCFC44490860204601F0E3FC0746D4
:101BE00042480168384601F03DFD064601F0BEFC62
:101BF00005463D48006805443D490968601A01F002
:101C0000D1FC81463B480168484601F02BFD074660
:101C1000284601F0C7FC8046394601F03DFB0646E8
:101C200001F0A4FC0546324804602846BDE8F08770
:101C30002DE9F0470546284601F0B4FC81462E48C0
:101C40000168484601F00EFD07462C48006801F087
:101C5000A9FC8046394601F01FFB064601F086FCD0
:101C600026490860284601F09DFC07462448016883
:101C7000384601F0F7FC064601F078FC04461F48A0
:101C8000006804442046BDE8F0872DE9F04705468A
:101C9000284601F087FC814617480168484601F054
:101CA000E1FC07461748006801F07CFC8046394695
:101CB00001F0F2FA064601F059FC12490860284684
:101CC00001F070FC07460E480168384601F0CAFC76
:101CD000064601F04BFC04460A48006804442046CE
:101CE000BDE8F08768000020740000206400002038
:101CF000700000206C0000207C000020800000208C
:101D000078000020840000202DE9F04704464FF0C1
:101D10007C51204601F0A6FC80462546FE48A0EBFB
:101D200055052C464146204601F09CFC8146214643
:101D300001F098FC07464FF07F5101F08FFD0646F9
:101D4000214601F08FFC04462046BDE8F0872DE9CE
:101D5000F84F82460021504601F050FC02D8002086
:101D6000BDE8F88F00200090504601F069FA074660
:101D70006A4600F08BFC054600F0B2FD82460098F2
:101D800000F0010040B10098401E00904FF08041EB
:101D9000504601F067FC82464FF07E51504601F0FC
:101DA0007BFA05464FF0804101F0EAFA04464FF015
:101DB00000090EE0A1462146504601F0E1FA064630
:101DC000214601F069FA05464FF0804101F0D8FA4A
:101DD00004464946204601F095FBEBD1204601F030
:101DE0002FFA0746DDF800B00BEBDB7042103846E7
:101DF00000F078FC054600F073FDB1E72DE9F74FE0
:101E000088B00C469146089801F01AFA0746C34A72
:101E1000C34B01F02DF805460022C24B00F04EFEE8
:101E2000824600F05DFD019000F072FB03902046B9
:101E300001F0B8FB0290039901F014FC059008989A
:101E400001F0FEF90746B54AB54B01F011F882469C
:101E50000022B44B00F032FE054600F041FD019037
:101E600000F07AFC0390C9F1000001F09BFB0290A6
:101E7000039901F0F7FB0490059901F00DFA069023
:101E800001F074FB079007980BB0BDE8F08F2DE9C7
:101E9000F74F88B00C469146089801F0D1F90746F3
:101EA0009E4A9F4B00F0E4FF054600229D4B00F048
:101EB00005FE824600F014FD019000F029FB03901E
:101EC000484601F06FFB0290039901F0CBFB0590AF
:101ED000089801F0B5F90746904A914B00F0C8FF09
:101EE000824600228F4B00F0E9FD054600F0F8FC29
:101EF000019000F031FC0390204601F053FB02906A
:101F0000039901F0AFFB0490059901F0C5F9069023
:101F100001F02CFB079007980BB0BDE8F08F10B5CF
:101F200004462046FFF72FFEA0F5006010BD2DE906
:101F3000F74F88B00C469146089801F081F90746A2
:101F4000764A774B00F094FF05460022754B00F06F
:101F5000B5FD824600F0C4FC019000F0D9FA039070
:101F6000484601F01FFB0290039901F07BFB0590AE
:101F7000089801F065F90746684A694B00F078FF58
:101F800082460022674B00F099FD054600F0A8FC50
:101F9000019000F0E1FB0390604201F003FB02902E
:101FA000039901F05FFB0490059901F075F9069023
:101FB00001F0DCFA079007980BB0BDE8F08F2DE92F
:101FC000F74F88B00C469146089801F039F907465A
:101FD000524A534B00F04CFF05460022514B00F093
:101FE0006DFD824600F07CFC019000F0B5FB039093
:101FF000484601F0D7FA0290039901F033FB0590AF
:10200000089801F01DF90746444A454B00F030FF9F
:1020100082460022434B00F051FD054600F060FC73
:10202000019000F075FA0390204601F0BBFA02908F
:10203000039901F017FB0490059901F02DF9069022
:1020400001F094FA079007980BB0BDE8F08F2DE9E6
:10205000F14F009800F0F5FE06460022324B00F0EA
:1020600007FF04460D463148006800F0EAFE0646C8
:1020700000222D4B00F0FCFE804622462B4600F04D
:1020800061FC824600F0AEFE284908600846006800
:10209000BDE8F88F2DE9F14F009800F0D2FE06461A
:1020A0000022214B00F0E4FE04460D462048006863
:1020B00000F0C7FE064600221B4B00F0D9FE80460A
:1020C00022462B4600F03EFC824600F08BFE18496B
:1020D000086008460068BDE8F88F2DE9F04704461F
:1020E0000D4692461E46134804601348FFF70CFE47
:1020F0008046022101FB054001F054FA8146414629
:1021000001F0B0FA074601F031FA0C4908600948BD
:102110000068FFF7BFFF13E0DF59375FF1D4C85302
:10212000FB211940000090400000E03FB00000207B
:10213000AC000020940000200000404098000020E7
:102140005249086052480068FFF781FF5049086013
:10215000304601F03FFA07464D4802684B48016897
:102160003846FFF72CFF4B490860304601F032FA41
:10217000074647480268454801683846FFF7D7FEDA
:1021800045490860BDE8F0872DE9F04F8BB0044663
:1021900089469246504601F01DFA05464A462146B8
:1021A000FFF72CFE3D490860504601F013FA054642
:1021B0004A462146FFF76BFE3949086037480068F8
:1021C000384908603548D0F800B00BEBDB71481097
:1021D00000F037FECDE906013148006800F031FE1D
:1021E00005460E463048FFF7B2FD019001F028F891
:1021F00000224FF08043CDE9020100F05FFC07466A
:102200002A46334600F034FECDE90401DDE9062319
:1022100000F02CFFCDE9080100F0E4FD234908603F
:102220001F48006801F0BEF983461F48FFF78FFD85
:102230005946089001F016FA80464FF0804101F0AF
:102240009FF8074615480068454205EBD5714810D0
:1022500001F0A8F93946099001F00AFB064601F0A1
:1022600085F9134908600BB0BDE8F08F0948006894
:1022700070470948006870470A48006870470B4873
:10228000006870470A48006870470000940000200A
:1022900098000020A4000020A80000209C0000203E
:1022A000A000002088000020000040408C0000209A
:1022B0009000002070477047704710B500F008F894
:1022C000006810BD10B5044600F002F8046010BDAF
:1022D00000487047B400002000487047B400002058
:1022E0007546FFF7F9FFAE4605006946534620F0F4
:1022F0000700854618B020B5FEF734F9BDE8204048
:102300004FF000064FF000074FF000084FF0000BB1
:1023100021F00701AC46ACE8C009ACE8C009ACE864
:10232000C009ACE8C0098D46704710B50446AFF34C
:1023300000802046BDE81040FDF71FBF014918206E
:10234000ABBEFEE72600020070474100080218BF3E
:1023500004200A0E18BF40F001004FF07F4232EA1D
:10236000010108BF40F00200012808BF05207047A6
:1023700040F2013200204FF0E04101F020BB0000AC
:10238000024A0020110701F01ABB000001FDFFFF07
:10239000012101F042BB0021084600F0F1BF6FF0BF
:1023A0005E01080701F039BB2DE9F04D0D461446DA
:1023B0004FF07F41B1EB440F9EBF4FF0FF312960DA
:1023C000BDE8F08D4FF0004040EA0421C4F3C7504F
:1023D000783810F01F024A4B4FEA601CC2F1200609
:1023E0007B44C4F3C750A0F178004FEA601003EBC0
:1023F000800053F82C3008BFD0E901C612D0D0F8C5
:1024000004C093402CFA06F73B4387680CFA02FCA1
:1024100027FA06F8C06807FA02F2F0404CEA080C06
:1024200042EA0006A3FB0132ACFB01C0A6FB01613E
:1024300001EB0C068E4234BF4FF0010C4FF0000C44
:10244000C1186144BCF1000F02D0814202D903E0FF
:10245000814201D2012000E00020104400F120025E
:102460004FEA92188006CA0C40EA42304F03C5F882
:10247000008001F097F88246384601F0ABF86FF023
:10248000120101F0CAFA0746304601F0A3F86FF0D6
:10249000250101F0C2FA83463946504600F0FCFEA1
:1024A000594600F0F9FE00F500666FF30B06514641
:1024B000304601F0DDF9394601F0DAF9594601F00C
:1024C000CDF9104901F0CEF807460F49304601F02A
:1024D000C9F8394600F0E0FE07460C49304601F0E5
:1024E000C1F8394600F0D8FE14F0004F08BFBDE82F
:1024F000F08DC8F1805180F000402960BDE8F08D7A
:10250000D4160000DB0FC92F22AAFD290000C92F15
:102510002DE9F843044602464F486946B0EB420FA6
:1025200009D94FF0E640B0EB420F94BF00204FF0C6
:10253000FF30009030E0494B22F00040834271D9D7
:102540004749204601F08EF801F058F9804601F025
:102550000DF800F0030000904249404601F082F877
:1025600005464149404601F07DF806463F49404650
:1025700001F078F807463E49404601F073F82146DD
:1025800001F06CF9394601F073F9314601F070F948
:10259000294601F06DF904462546009C002C45DBD8
:1025A000294614F0010F08461CD001F05BF80646DE
:1025B000304901F057F8304901F050F9314601F047
:1025C00051F82E4900F068FE314601F04BF82946DB
:1025D00001F048F8294600F05FFE14F0020F1CD00D
:1025E000BDE8F88301F03EF80546254901F03AF8C8
:1025F000244900F051FE294601F034F8224900F048
:102600004BFE294601F02EF84FF07E5100F044FEBB
:1026100014F0020F08BFBDE8F88380F00040BDE869
:10262000F883FFE71046FFF7BFFEB4E76800B0F19C
:102630007F4F3CBF4FF07E50BDE8F88307D14FF08D
:102640000100FFF73FFEBDE8F843FFF7A4BE2846B0
:10265000BDE8F843FFF79CBEB61F927E490E49467F
:1026600083F9223F1A61342C0020A23300A0FD39E7
:102670000000C93F336D4C39DA82083CA0AA2ABE5B
:10268000B93AB2BACA9F2A3DDDFFFFBE10B5144663
:1026900000222260114A21F000439342A8BF10BDDE
:1026A00053EA000208BF10BDB3F5801FA8BF22681F
:1026B00007DA362201F083F96FF0350221F000438A
:1026C0002260DFF81CC06FF31E510CEB23531A4439
:1026D00041F0FF5141F00051226010BD0000F07F39
:1026E00002FCFFFF2DE9F04106460C4640F2FF7563
:1026F000174635EA14502BD000221346304600F01E
:1027000035FB25D03A463046214601F058F90646B9
:102710000C4635EA145010D000221346304600F023
:1027200025FB15D10220FFF7CDFDFFF729FE0A4654
:10273000214662F31E01BDE8F0810220FFF7C2FDD1
:10274000FFF716FE0A46214662F31E01BDE8F0813E
:1027500030462146BDE8F0812DE9F84304460246A3
:1027600052486946B0EB420F09D94FF0E640B0EB52
:10277000420F94BF00204FF0FF30009030E04C4BF0
:1027800022F00040834271D94A49204600F06AFF96
:1027900001F034F8804600F0E9FE00F003000090FC
:1027A0004549404600F05EFF05464449404600F07A
:1027B00059FF06464249404600F054FF074641494A
:1027C000404600F04FFF214601F048F8394601F03D
:1027D0004FF8314601F04CF8294601F049F804461B
:1027E0002546009C002C45DB294614F0010F0846C5
:1027F0001ED000F037FF0546334900F033FF334960
:1028000000F04AFD294600F02DFF314900F044FD5B
:10281000294600F027FF4FF07E5100F03DFD14F0F7
:10282000020F08BFBDE8F88380F00040BDE8F883E0
:1028300000F018FF0646274900F014FF264901F072
:102840000DF8314600F00EFF244900F025FD314619
:1028500000F008FF294600F005FF294600F01CFDA6
:1028600014F0020FE0D1BDE8F883FFE71046FFF750
:102870009BFDB4E76800B0F17F4F09D22846FFF70F
:1028800064FD042808BFFFF78AFD2846BDE8F883E9
:1028900006D10120FFF716FDBDE8F843FFF77BBD29
:1028A0002846BDE8F843FFF773BD0000B61F927ECF
:1028B000490E494683F9223F1A61342C0020A23385
:1028C00000A0FD390000C93FB93AB2BACA9F2A3DFB
:1028D000DDFFFFBE336D4C39DA82083CA0AA2ABE68
:1028E00021F00042A2F16052B2F5801F01F00043D6
:1028F00028BFD2F17F6C0BD95FEA001C43EAC20209
:1029000042EB507018BF704728BF20F0010070479D
:10291000B2F5801FBCBF184670474FEA410C1CF54A
:10292000001F02D2084600F064BF70B500F04AFBF9
:1029300000000089FFF7F6BF4FF00040A0F58000CF
:102940007047000010B591EA030F48BF83F00043C1
:1029500000F19483841A71EB030C05D2121943EB36
:102960000C03001B61EB0C01DFF824E14FEA11546A
:10297000A4EB135C1EEA430F18BF9EEA445F73D0BA
:1029800023EA0E03DCF1200E21EA045143F4801304
:1029900032D322FA0CFE10EB0E0023FA0CFE41EBB0
:1029A0000E01CCF1200E03FA0EFE10EB0E0051F1D9
:1029B0000001B1F5801FCCF1200E32D201EB0451A1
:1029C00012FA0EF2BDE8104058BF7047401C38BFE5
:1029D0005FEA420218BF7047002814BF20F00100D0
:1029E00041F100014FEA410313F5001F38BF704762
:1029F000A1F1C04100F034BB012A43EB0302ACF16A
:102A0000200CDCF11F0E32BF4FF0000E23FA0CF346
:102A100010EB030041EB0451B4EB115FD0D0A1EBFC
:102A2000045101F5801149085FEA300001EB0451BF
:102A30000ED350F1000038BF12FA0EFE08D1BDE8E7
:102A40001040C9E7401C38BF5FEA4202CAD1C3E761
:102A5000BDE810404FEA410313F5001F38BF70472F
:102A6000A1F1C04100F0FCBA9EEA445F08D011EA2F
:102A70005E0FBDE8104004BF01F000410020704728
:102A8000BDE8104070B500F09DFA00BF64FBBE3E8B
:102A90000000E0FF02494FF0000000F05EBF00BF01
:102AA0000000F87F491058BFC1F140415B1058BF8A
:102AB000C3F140438B42EFF3008070472DE9C041E2
:102AC00030B4DFF8A0C23CEA111418BF3CEA13147A
:102AD00000F0EC8081EA03051CEA111444EAD57485
:102AE00018BF1CEA131500F0C780A4EB05044FF0D3
:102AF000004545EAC12145EAC32341EA505143EA72
:102B0000525304F17F74994204F500344FEAC02017
:102B10004FEAC22208BF904200F09C804FEA136542
:102B20000FF24016765D4FEA134506FB05F7C7F135
:102B3000807706FB07F74FEAD737A7FB0368764293
:102B4000C8F58038A7FB06CE38BFA8F1010807FBFF
:102B500008E64FF0000EA6FB028CE6FB03CEDCF18C
:102B6000000CCEF1004E38BFAEF1010EA6FB0C58A2
:102B70004FF000074FF00005E6FB0E87A1FB08C6EB
:102B8000A0FB07CE16EB0E0645F10005E1FB07653D
:102B900015F1E04E7EBFA4F580345FEA46066D4134
:102BA00016F1800745F100054FEA17274FEA066640
:102BB00047EA0567A6F1DE46B6F1805F4FEA1525C4
:102BC0001FD9384624F0010C05EBC471BCF1FE6F2F
:102BD00001EB0C1102D8F0BCBDE8008124425CBFBF
:102BE00001F5801E9EEAC47F02D4F0BCBDE80081DE
:102BF000244238D4F0BCA1F1C041BDE8004100F04E
:102C00002FBA4FEAD22242EA43524FEAD323A7FB1C
:102C100002864FEAD02040EA415007FB03661EEAD5
:102C20000E0F4FEAD12105FB026658BFA6EB0056F6
:102C3000B6EB00564FEA520E4EEAC37E18EB0E0E6C
:102C400056EB530EBDD518EB02085E417F1C55F1C3
:102C50000005B6E74FF480154FF000074FF000066F
:102C60004FF00008ADE7F0BC4FF0000001F1C041AB
:102C700001F00041BDE8008111EA0C1F0CEA1315B8
:102C800000D00CE013EA0C1F00F025804FF000008C
:102C9000F0BC81EA030101F00041BDE80081F0BC15
:102CA000BDE8004181EA030100F0DAB9F0BCBDE8FB
:102CB000004170B500F086F9097EFC3E00F007B8CF
:102CC00081EA03014FF0000001F00041704781EA02
:102CD000030100F0C5B9F0BCBDE800414FF00000B1
:102CE00021497047FFFDFBF9F7F5F4F2F0EEEDEB4B
:102CF000E9E8E6E4E3E1E0DEDDDBDAD8D7D5D4D3FA
:102D0000D1D0CFCDCCCBCAC8C7C6C5C4C2C1C0BF45
:102D1000BEBDBCBBBAB9B8B7B6B5B4B3B2B1B0AF4B
:102D2000AEADACABAAA9A8A8A7A6A5A4A3A3A2A12F
:102D3000A09F9F9E9D9C9C9B9A99999897979695EA
:102D400095949393929191908F8F8E8E8D8C8C8B86
:102D50008B8A89898888878786858584848383820E
:102D6000828181800000FF070000F87F51EA030C98
:102D700017D41CF5801F58BFBCF5801F00F10680DA
:102D8000994218BF704708BF9042704707D711F5A6
:102D9000801F58BF13F5801F19D49942704789428C
:102DA00070471CF5801F08D5BCF5801FF7D58B42F6
:102DB00018BF704708BF824270474FF4001C1CEBDD
:102DC000410F38BF1CEB430F01D28B42704770B5E7
:102DD00000F0F8F8922449004FF000514FF0805372
:102DE000FFF760BE4FEA41034FEA5353A3F58063F8
:102DF000D3F11E03C8BFD3F1210C0CDD4FF000420C
:102E000042EAC12242EA505232FA03FC8CEAE17CE7
:102E1000ACEBE1707047102BC4BF0020704703F586
:102E2000787CBCF1FF3F04D06FF0004282EA2100C1
:102E3000704770B500F0C6F84992248000207047B2
:102E4000F2E710F0004248BF4042B0FA80F310FAB7
:102E500003F10AD0C3F11D0303F580634FEA41502B
:102E600002EB035202EBD12170474FF00000704794
:102E7000DFF848C170B51CEA111E1EBF1CEA13150D
:102E80009EEA0C0F95EA0C0F00F06F8081EA0304B4
:102E900023EA4C134EEAD47E21EA4C1141F480110E
:102EA00043F48013AE44A1FB024CA0FB0365AEF1DA
:102EB0007F7E361955EB0C05A1FB034C4CF100034A
:102EC000A0FB021C16EB0C06654153F100030942FE
:102ED00018BF46F0010613F4007F0BD14FEA03310F
:102EE0004FEA0530340341EA155140EA16506FF0BD
:102EF00003020AE04FEAC3214FEAC520F40241EA87
:102F0000555140EA56506FF0020202EB2E4201EB9F
:102F1000025585EACE710AD05FEA440C18BF24F04E
:102F2000004450F1000041F1000120EAD47040F269
:102F3000FE7C624500D270BDA84214BF4FF08044B1
:102F40004FF04044002E08BF0024BEF1806FA8BFA0
:102F5000A1F1C041BDE8704080F282804FF00000D6
:102F600001F1C04101F0004170479EEA0C0F0CEAEC
:102F7000131518BF95EA0C0F06D04FF0000081EA38
:102F8000030E0EF0004170BD00F01CF88900013EF8
:102F900000F007B800F009B84FEA430C5FEA5C5C48
:102FA00008D081EA030100F05BB84FEA410C5FEA08
:102FB0005C5CF6D14FF00000014970470000FF074C
:102FC0000000F87F0EF1020E2EF0030E5EF8046B87
:102FD000364205D4012A43EB030515F5001F12D82C
:102FE000012841EB010C1CF5001F0CD80ED14FEA53
:102FF000D17C15F5001F0CEB4C0C0CF1020C08BF3A
:103000004CEBD37C04E04FF0080C01E04FEAD37C9A
:103010000CEB4C0526FA05F606F00706B6F1040C93
:1030200006D20EEB860CBDE870404CF0010C6047F8
:10303000DFE80CF0090B02024FF000414FF00000F6
:10304000A1F5002170BD19461046012851EB01047D
:1030500018BFD4F5001484BF002001F0004170BDFA
:103060000808A0F500114FEA3101704710B591EA48
:10307000030F48BF83F000433FF56CAC841A71EB3B
:10308000030C07D212198CF0004C43EB0C03001B0D
:1030900061EB0C01DFF8A4E14FEA1154A4EB135CDF
:1030A0001EEA430F18BF9EEA445F00F0B08023EA97
:1030B0006E03524221EA0451C3EB6E0338BF5B1E1C
:1030C000DCF1200E25D322FA0CFE10EB0E0043FAA1
:1030D0000CFE41EB0E01CCF1200E03FA0EFE10EBBC
:1030E0000E0051F10001CCF1200E29D412FA0EF29B
:1030F00001EB0451BDE8104058BF7047401C1CBF95
:10310000B2F1004F704700280CBF491C20F00100AD
:10311000704712EB020E43EB030218BF4FF0010E93
:103120004EEA4202ACF1200CDCF11E0E54D943FAF7
:103130000CFE10EB0E0051F1FF31CCF11E0ED5D577
:103140000EF1010E12FA0EFE404141EB010101EBBE
:10315000445C5FEA5C5C10D910EBDE7001EB04515B
:1031600038BFBEF1004FBDE8104018BF70470028BF
:103170000CBF491C20F00100704730D24FEAD42C1C
:1031800011F5001124F400641BD0B1FA81F20B3A5E
:10319000A41AA41ED2F12003914030FA03F319437C
:1031A000904001EBCC71002C01EB0451BDE81040C4
:1031B000A8BF704701F1C0414FF0000001F000418D
:1031C0007047B0FA80F310FA03F100D110BDE41A91
:1031D000173C4805C90AE4E701EB045110BD49104A
:1031E00001EB0451BDE810404FEA300002E04FF01F
:1031F000000170474A0008BF0042F8D0B2F5001F36
:1032000028BF704701F000414FF0000070479EEA70
:10321000445F07D011EA5E0FBDE8104004BF0021F3
:1032200000207047BDE8104070B5FFF7CBFE00BF2F
:1032300040DFF63E83F00041104670470000E0FF9B
:1032400043004FEAD30C4FEA3C0C43401FBF4007FA
:103250000CF1605113F0FE4F70471CF0006F03D16A
:1032600000200CF0004170470CF0004343EA50701E
:1032700010B540EACC0000F076FA00BF00000092E2
:103280004FEA0001FFF7ECBE4FF000414FF00000A5
:10329000A1F500217047000090EA010F48BF81F0BE
:1032A000004100F1EC82421A3CBF801A89184FEAB3
:1032B000D0524FF07F4C1CEA410FA2EBD15318BF04
:1032C0009CEA026F00F03B804FF0004C4CEA00207B
:1032D0004CEA012121FA03FC10EB0C0C1ED202F186
:1032E000FF325FEA1C2040EBC25038BF70471CF031
:1032F0007F0F4FEA400C18BFBCF17F4F38BF7047BB
:10330000C3F12003994008BF20F00100BCF17F4FBA
:1033100038BF7047A0F1C04000F06BBA4FEA3C00E4
:10332000000A40EBC25028BF1CF0FF0F4FEA400CD0
:10333000E6D018BFBCF17F4F38BF7047EAE79CEA80
:10334000026F05D010EA5C0F08BF00F00040704724
:1033500010B500F008FA00BF64FBBE3E014800F063
:10336000FCBA00BF0000C07F401058BFC0F1404011
:10337000491058BFC1F140418142EFF300807047CE
:103380004FF47F0C1CEAD0121EBF1CEAD11392EA44
:103390000C0F93EA0C0F00F0858090EA010F48BFF4
:1033A00042F4807240F4000C41F400002CF07F41A4
:1033B00020F07F4000B58142A2EB03020FF2081C0F
:1033C000ACEB504EC0F100009EF800E04FEA4E0E0C
:1033D00000FB0EFC38BF49004FEA2C1C02F5FA0234
:1033E0000CFB0EF34FEACE1E4FEA112C4FEAC1211F
:1033F0000EEB635E42EB22420EFB0CFC4FEA1C53C9
:1034000000FB03114FEA112C4FEA01310EFB0CFCBB
:103410004FEADC4C00FB0C11C14228BF09184CEBF1
:1034200003335DF804EB10EB410143EBC250B2F5FE
:103430007C0F38BF704729D512F0F00F1CBF00F188
:10344000C04000F0004070470081828384858687F9
:1034500088898B8C8D8E8F919293959697999A9C53
:103460009D9FA0A2A3A5A7A8AAACAEB0B2B3B5B7C2
:10347000B9BCBEC0C2C5C7C9CCCED1D4D7D9DCDF98
:10348000E2E6E9ECF0F3F7FAFE0000004FEA400C48
:103490000CF1807CBCF17E4F28BF7047B0F1C0407A
:1034A00000F0A7B990EA010F0CEAD11348BF42F42B
:1034B0008072624538BF634507D213F47F0F16D080
:1034C00080EA010000F00040704710B500F04BF9B1
:1034D000097EFC3E00F005B880EA010000F00040E3
:1034E000704780EA010000F0004000F082B912F459
:1034F0007F0F04BF0248704780EA010000F079B9ED
:103500000000C07F50EA010C00F113801CF5000F91
:1035100058BFBCF5000F01D48842704707D710F59B
:10352000000F58BF11F5000F15D48842704789422B
:1035300070471CF5000F04D5BCF5000FF7D581428C
:1035400070474FF0807C1CEB400F38BF1CEB410FE5
:1035500001D28142704710B500F005F9922449006C
:103560004FF000504FF08051FFF7FEBE41000B0EB0
:10357000D3F19E0208D950F400034FEA032323FA43
:1035800002F048BF4042704710B500F0ECF800BFB1
:1035900049922480002070476FF0004282EA2000A8
:1035A0007047000010F0004148BF4042B0FA80F37D
:1035B00010FA03F2C3F19D030BD051EAC35101EBA2
:1035C0001220530638BF704700F1010008BF20F0F9
:1035D00001007047B0FA80F310FA03F2C3F19D03C3
:1035E0000AD0D90501EB1220530638BF704700F10D
:1035F000010008BF20F001007047000050EA010CF4
:1036000000F113801CF5000F58BFBCF5000F01D46A
:103610008842704707D710F5000F58BF11F5000F0B
:1036200015D488427047894270471CF5000F04D5B5
:10363000BCF5000FF7D5814270474FF0807C1CEB42
:10364000400F38BF1CEB410F01D28142704710B5CB
:1036500000F089F8922449004FF000504FF080515B
:10366000FFF782BE4FF47F0C1CEAD0121EBF1CEA8B
:10367000D11392EA0C0F93EA0C0F00F0478090EA06
:10368000010F48BF42F480724FF0004C4CEA00201A
:103690004CEA012102EB0302A0FB0113A2F5000298
:1036A000002918BF43F001035B0028BF4FEA330332
:1036B00042EB22425FEA132C4CEBC2502EBFBCEB14
:1036C000436FB2F57C0F70474FEA036CBCF1004FBB
:1036D00008BF20F00100B2F57C0F38BF70470BD552
:1036E00082F0FF0212F5803FC8BF704700F1C04072
:1036F000D8BF00F00040704700F5000C5FEA4C0CAA
:1037000048BF7047B0F1C04000F073B890EA010FB5
:103710000CEAD11348BF42F48072624538BF63455A
:1037200004D280EA010000F00040704710B500F0BC
:103730001AF800BF8900013E00F007B800F009B890
:103740005FEA410C5FEA1C6C08D080EA010000F0DF
:1037500050B85FEA400C5FEA1C6CF6D14FF00040B5
:10376000A0F5800070470EF1020E2EF0030E5EF8F9
:10377000044B244204D44FEA4102B2F17F4F11D8E6
:103780004FEA4003B3F17F4F0CD80ED14FEAD07C03
:10379000B2F17F4F0CEB4C0C0CF1020C08BF4CEB60
:1037A000D17C04E04FF0080C01E04FEAD17C0CEB37
:1037B0004C0324FA03F404F00704B4F1040C06D219
:1037C0000EEB840CBDE810404CF0010C6047DFE8C4
:1037D0000CF0070802024FF00040A0F5800010BD79
:1037E0000846420018BFD2F1807288BF00F0004046
:1037F00010BDFF2141EAD050C00570475FEA400C80
:103800005FEA1C6CBCF17F0314D4D3F1170240F3C0
:103810001C804FF0010C0CFA02FCACF101030340D8
:10382000B3EB5C0220EA030008BF10EA0C0F88BF6C
:1038300060447047B3F1FF3F28BF5FEA002C00F0FF
:10384000004088BF40F07E507047BCF1FF0FB8BF0A
:10385000704710B5FFF787FF40DBB6BE80F0004031
:1038600090EA010F7FF51FAD81F0004100F007B82D
:1038700090EA010F48BF81F000413FF514AD421AB4
:1038800004D882F00042A0EB020011444FEAD0526B
:103890004FF07F4C1CEA410FA2EBD15318BF9CEABA
:1038A000026F4AD04FF0004C4CEA00204CEA012154
:1038B00021FA03FCB0EB0C0C0FD412F0FE0F36D043
:1038C0005FEA4C001DD5001240EBC25038BF704774
:1038D0001CF03F0F18BF70470BE0A2F101025FEA36
:1038E0001C2040EBC25038BF70471CF07F0F18BF40
:1038F0007047C3F12003994014BF401E20F001001F
:10390000704780084FEA122308BF7047B0FA80FC66
:10391000A2EB0C02CCF1280C60FA0CF093EA122F07
:1039200004BF00EBC25070474FEAC3707047130AE0
:103930005FEADC1008BF7047F6E79CEA026F04D02C
:1039400010EA5C0F08BF0020704710B5FFF70BFFAF
:1039500040DFF63E81F0004070470CF00F03092B6A
:1039600008BF082000F07F800A2B0BD0082B18BF5F
:10397000704708BF1CF0400F0AD04FF000004FF016
:10398000000170471CF0400F18BF4FF00040704717
:103990001CF0100F08D020F0704300F07F4242EA84
:1039A000D3014FEA4370704700F0604021F07F423E
:1039B00042EA000201F07F4040EA727070474FF027
:1039C000FF0C4CF4E06C1CEA11531CBF9CEA030C86
:1039D0009445C2BFDA4201EB02517047002B0DD073
:1039E000BCF1000F0FD0002A01F00041A4BF41F04C
:1039F000E04141F07F614FF00000704701F000416D
:103A00004FF00000704750EA01334FF09B0C18BF95
:103A10004CF0806C7FF43EA870474FF0FF0212EA32
:103A2000D0521CBF92F0FF038B42C2BFD14200EBC9
:103A3000C1507047002A0AD0002B0BD0002900F09B
:103A40000040A4BF40F0FE4040F40000704700F08A
:103A50000040704743024FF00B0C18BF4CF0806CD5
:103A60007FF47CAC70471CF4801F11D01CF4E02F55
:103A700003D06FEACC31490070474FF04050EFF36C
:103A8000008222F0704242EA000282F3008870470E
:103A90004FF00000704700000400000000080140E3
:103AA00001000200FF0D0008000200000024014098
:103AB0000200010012020000000000006E83F9A263
:103AC0002915444ED15727FCC0DD34F5999562DBAA
:103AD0004190433CAB6351FEF83A000800000020DF
:103AE000B400000028010008AC3B0008B40000202E
:103AF0006404000044010008000000000000000011
:103B000000000000000000000000000000000000B5
:103B100000000000000000000000000000000000A5
:103B2000000000004600000000000000000000004F
:103B30000000000000000000000000000000000085
:103B40000000000000A24A04000000000000000085
:103B50000102030406070809000000000000003FFE
:103B60009A99193E000000000000000000000000CB
:103B70000000003F00000000000000000000000006
:103B80000000000000000000000000000000000035
:103B90000000000000000000000000000000000025
:0C3BA00000000000000000000000000019
:04000005080000ED02
:00000001FF
