:020000040800F2
:100000000004002041020008490200084B020008D9
:100010004D0200084F0200085102000800000000D5
:100020000000000000000000000000005302000873
:10003000550200080000000057020008590200089D
:100040005B0200085B0200085B0200085B0200081C
:100050005B0200085B0200085B0200085B0200080C
:100060005B0200085B0200085B0200085B020008FC
:100070005B0200085B0200085B0200085B020008EC
:100080005B0200085B0200085B0200085B020008DC
:100090005B0200085B0200085B0200085B020008CC
:1000A0005B0200085B0200085B0200085B020008BC
:1000B0005B0200085B0200085B0200085B020008AC
:1000C0005B0200085B0200085B0200085B0200089C
:1000D0005B0200085B0200085B0200085B0200088C
:1000E0005B0200085B0200085B020008DFF80CD02E
:1000F00000F086FA00480047F104000800040020E0
:100100000CB50020019000904848006840F4803011
:100110004649086000BF4548006800F40030009080
:100120000198401C0190009818B90198B0F5A06F93
:10013000F1D13E48006800F4003010B10120009079
:1001400001E0002000900098012843D13848006861
:1001500040F01000364908600846006820F00300AF
:1001600008600846006840F0020008602F484068B8
:100170002E4948600846406848600846406840F498
:10018000806048600846406820F47C10486008465B
:10019000406840F4881048600846006840F080706D
:1001A000086000BF2148006800F000700028F9D006
:1001B0001E48406820F003001C494860084640681B
:1001C00040F00200486000BF1848406800F00C0092
:1001D0000828F9D10CBD10B5FFF792FF10BD10B57E
:1001E0001248006840F00100104908600846406865
:1001F000104908400D494860084600680E4908400B
:100200000A4908600846006820F480200860084613
:10021000406820F4FE0048604FF41F008860FFF73C
:10022000DAFF4FF000600549086010BD0010024081
:10023000002002400000FFF8FFFFF6FE08ED00E09E
:100240000648804706480047FEE7FEE7FEE7FEE770
:10025000FEE7FEE7FEE7FEE7FEE7FEE7DF01000858
:10026000ED00000829B1064A92690243044B9A61E5
:1002700004E0034A92698243014B9A61704700008F
:10028000001002402DE9F041024600250026002022
:1002900000230024002791F803C00CF00F0591F80B
:1002A00003C00CF0100CBCF1000F03D091F802C099
:1002B0004CEA050591F800C0BCF1000F31D014687C
:1002C00000202BE04FF0010C0CFA00F3B1F800C055
:1002D0000CEA03069E4220D183004FF00F0C0CFA6B
:1002E00003F7BC4305FA03FC4CEA040491F803C08D
:1002F000BCF1280F06D14FF0010C0CFA00FCC2F83B
:1003000014C00AE091F803C0BCF1480F05D14FF0CA
:10031000010C0CFA00FCC2F810C0401C0828D1D314
:100320001460B1F800C0BCF1FF0F34DD5468002048
:100330002EE000F1080C4FF0010808FA0CF3B1F8B8
:1003400000C00CEA03069E4221D183004FF00F0C3F
:100350000CFA03F7BC4305FA03FC4CEA040491F8D9
:1003600003C0BCF1280F05D100F1080C08FA0CF805
:10037000C2F8148091F803C0BCF1480F07D100F116
:10038000080C4FF0010808FA0CF8C2F81080401C65
:100390000828CED35460BDE8F081000030B5024695
:1003A000002000235068504C20400D790C6844EA2E
:1003B00005242043506090684C4C2040D1E9025401
:1003C0002C434D7944EA450420439060D06A20F4E0
:1003D00070000C7C641EE4B2234340EA0350D062F8
:1003E00030BD21B1826842F00102826003E0826880
:1003F00022F001028260704721B1826842F4A002BB
:10040000826003E0826822F4A00282607047F0B547
:1004100004460D4600200021092D11DDE068A5F1FC
:100420000A0606EB4607072606FA07F18843A5F1F8
:100430000A0606EB460603FA06F10843E0600CE004
:10044000206905EB4507072606FA07F1884305EB07
:10045000450603FA06F108432061072A0FDA606BAC
:10046000561E06EB86071F2606FA07F18843561E1E
:1004700006EB860605FA06F10843606322E00D2AC2
:100480000FDA206BD61F06EB86071F2606FA07F148
:100490008843D61F06EB860605FA06F1084320635B
:1004A00010E0E06AA2F10D0606EB86071F2606FAA9
:1004B00007F18843A2F10D0606EB860605FA06F160
:1004C0000843E062F0BD0146C86C80B27047024646
:1004D000002013680B400BB1012000E000207047A2
:1004E000CA43026070470000FFFEF0FFFDF7F1FF16
:1004F0000EB500F017F800F04CF80DE000F054F8DD
:1005000050B100F04CF80446224604A1684600F0C1
:1005100089F800F03EF800BFF0E700002564200AEB
:100520000D00000000B587B001210820254A12689F
:1005300090470120ADF8180000208DF81B00022024
:100540008DF81A0006A92048FFF79CFE01214802F9
:100550001E4A1268904700208DF8090004904FF45D
:10056000602003900020019001208DF814008DF888
:10057000080001A91648FFF711FF072301220821EF
:100580001348FFF744FF01211148FFF72AFF07B086
:1005900000BD10B501210E48FFF72EFF10BD10B5AC
:1005A0000B48FFF790FF10BD10B502210848FFF778
:1005B0008EFF28B102210648FFF792FF012010BDEF
:1005C0000020FCE7CC070008000C0140DC07000815
:1005D0000024014030B50B460146002020220124B2
:1005E00009E021FA02F59D4205D303FA02F5491B01
:1005F00004FA02F52844151EA2F10102F1DC30BD17
:10060000064C074D06E0E06840F0010394E807005F
:1006100098471034AC42F6D3FFF76CFDEC070008A6
:10062000FC0700080FB4084B10B504A902AA0398F0
:1006300000F01CF8044602A9002000F0C1F8204692
:1006400010BC5DF814FB0000C107000802E008C8F8
:10065000121F08C1002AFAD170477047002001E03C
:1006600001C1121F002AFBD1704700002DE9FF4F86
:1006700089B09B460446002506E025280BD05A4643
:100680000B999047641C6D1C20780028F5D10DB0A3
:100690002846BDE8F08F0027B8460122474900E010
:1006A000074314F8013F203B02FA03F00842F7D158
:1006B00020782E2819D114F8010F47F004072A28B2
:1006C0000ED06FF02F022078A0F1300109290CD84C
:1006D00008EB880102EB410100EB0108641CF2E722
:1006E0000A98641C50F8048B0A9020780028CED019
:1006F000642808D0692806D075281ED05A460B9960
:1007000090476D1C58E00A994FF00A0901C90A91F7
:10071000002802DA40422D2102E0390504D52B21C0
:100720008DF82010012103E0F90704D02021F7E71C
:100730008A4608AE0DE00021FAE70A994FF00A094F
:1007400001C90A91F7E74946FFF744FF303106F83F
:10075000011D0028F7D1ADEB060000F12009780754
:1007600001D44FF00108C84502DDA8EB090000E004
:1007700000208046002706E008A85A46C05D0B9975
:1007800090476D1C7F1C5745F6DB04E030205A462D
:100790000B9990476D1CB8F10001A8F10108F5DC38
:1007A00005E016F8010B5A460B9990476D1CB9F1FC
:1007B0000001A9F10109F4DC641C65E709280100C6
:1007C0000A68531C0B601070704700006502000837
:1007D00008000000000C0140010000006502000854
:1007E000000200000024014008071202FC07000874
:0C07F00000000020000400005C0600086F
:0400000508000241AC
:00000001FF
